:0400000002001132B7
:03000B00020E20C2
:03006A0002000E83
:03000E00020642A5
:10006D007E327F007C907D01EC24FFFAED34FFFBA6
:10007D008A048B05EA4B70F0EE24FFFCEF34FFFD94
:10008D008C068D07EC4D70DC227F0075B0FFC2B47D
:10009D0020B00B12006D30B0FD12006D7F0120B14C
:1000AD000B12006D30B1FD12006D7F0420B20B12EA
:1000BD00006D30B2FD12006D7F0720B30B12006D85
:1000CD0030B3FD12006D7F0A75B0FFC2B520B00BC5
:1000DD0012006D30B0FD12006D7F0220B10B1200C9
:1000ED006D30B1FD12006D7F0520B20B12006D3029
:1000FD00B2FD12006D7F0820B30B12006D30B3FD01
:10010D0012006D7F0B75B0FFC2B620B00B12006DE3
:10011D0030B0FD12006D7F0320B10B12006D30B1B8
:10012D00FD12006D7F0620B20B12006D30B2FD1274
:10013D00006D7F0920B30B12006D30B3FD12006D01
:10014D007F0C75B0FFC2B720B00B12006D30B0FD43
:10015D0012006D7F0D20B10B12006D30B1FD12003C
:10016D006D7F0E20B20B12006D30B2FD12006D7F4F
:10017D000F20B30B12006D30B3FD12006D7F108F89
:10018D0082227E147F007C907D01EC24FFFAED34F9
:10019D00FFFB8A048B05EA4B70F0EE24FFFCEF3475
:1001AD00FFFD8C068D07EC4D70DC22858208858362
:1001BD00099003E8120F32AE82AF83EE4F601B7CC5
:1001CD00907D01EC24FFFAED34FFFB8A048B05EAE8
:1001DD004B70F01EBEFF011F80E122AE82AF83EE99
:1001ED004F601B7C907D01EC24FFFAED34FFFB8A00
:1001FD00048B05EA4B70F01EBEFF011F80E1227FCC
:10020D00027EEFEE14FDFE70FAEF14FDFF70F42286
:10021D00AF82C290C2918F80D2A512020CC2A502EC
:10022D00020CAF82D290C2918F80D2A512020CC265
:10023D00A502020C75823812021D75820C12021D68
:10024D0075820612021D75820102021DAF82BF0169
:10025D000BAF211F74804FF58202021DAF21743F39
:10026D002FFF74804FF58202021D85222112025943
:10027D0085238202022F8524211202597F00EF254A
:10028D0025FCE43526FDAE278C828D838EF0120F72
:10029D009CFE600C8E82C00712022FD0070F80DEED
:1002AD0022AE82AF837C017D007B008B017A00C37F
:1002BD00E99528EA64808529F063F08095F0501E59
:1002CD008E088F098C828D83C007C006C003120F64
:1002DD0032AC82AD83D003D006D0070B80CD8C829B
:1002ED008D8322852A21120259AF2DEF603F8F0594
:1002FD007E00ED24FFF528EE34FFF52990000AC0AD
:10030D00071202AEAD82AE838D088E09852B8285D4
:10031D002C83120F0975080A750900120F4FAD8253
:10032D0074302DF58212022FD0071F80BE22852E2C
:10033D0021120259E53020E70C75822B12022FAEE7
:10034D002FAF30800F75822D12022FC3E4952FFE33
:10035D00E49530FFAD31ED60518D037C00EB24FF52
:10036D00F528EC34FFF52990000AC007C006C0053A
:10037D001202AEAB82AC83D005D006D0078B088CB1
:10038D00098E828F83C007C006C005120F0975083C
:10039D000A750900120F4FAB8274302BF5821202D1
:1003AD002FD005D006D0071D80AC22853221120238
:1003BD0059AF35EF60558F057E00ED24FFF528EE22
:1003CD0034FFF529900010C0071202AEAD82AE8346
:1003DD008D088E09853382853483120F09E5828558
:1003ED0083F0D007540FFDBD0A0050108D067430F8
:1003FD002EF582C00712022FD007800C74372DF511
:10040D0082C00712022FD0071F80A8228536211225
:10041D000259AF39EF603A8F057E00ED24FFF528C4
:10042D00EE34FFF529900002C0071202AEAD82AE88
:10043D00838D088E09853782853883120F09E582F1
:10044D008583F054012430F58212022FD0071F80CE
:10045D00C322D292D297C292C29722C292D297D27F
:10046D009222AF827E008EF005F07C80E4FD339207
:10047D00D28008A2D2ED13FDEC13FCD5F0F58F025E
:10048D007B00EA5204EB5205EC4D24FF9292D29779
:10049D00C2970EBE080040CE227F00D2927E00D2BF
:1004AD009730921B8EF005F07C80E4FD3392D28064
:1004BD0008A2D2ED13FDEC13FCD5F0F5EC4207C20A
:1004CD00970EBE080040D88F8222E58224FF9292BB
:1004DD00D297C29722D292D297A292E433F582C2DA
:1004ED0097227E0A7F007C907D01EC24FFFAED348B
:1004FD00FFFB8A048B05EA4B70F0EE24FFFCEF3412
:10050D00FFFD8C068D07EC4D70DC22AF82C007120B
:10051D00045F7582A012046F1204E2D0078F82125D
:10052D00046F1204E2853A8212046F1204E212047F
:10053D00680204EFAF82C00712045F7582A0120437
:10054D006F1204E2D0078F8212046F1204E21204BC
:10055D005F7582A112046F1204E21204A6AF8275B8
:10056D008201C0071204D7120468D0078F82227E41
:10057D000A7F007C907D01EC24FFFAED34FFFB8AAD
:10058D00048B05EA4B70F0EE24FFFCEF34FFFD8C7D
:10059D00068D07EC4D70DC227E007F0020B00D1221
:1005AD00057C30B0FD12057C7E017F0020B10D125F
:1005BD00057C30B1FD12057C7E027F0020B20D124C
:1005CD00057C30B2FD12057C7E037F0020B30D1239
:1005DD00057C30B3FD12057C7E047F0020B40D1226
:1005ED00057C30B4FD12057C7E057F0020B50D1213
:1005FD00057C30B5FD12057C7E067F0020B60D1200
:10060D00057C30B6FD12057C7E077F0020B70D12EC
:10061D00057C30B7FD12057C7E087F008E828F83AE
:10062D0022438901C28DD28C758CFC758A18D2AF8C
:10063D00D2A9C2B92212024112062EC2A2C2A0C272
:10064D00A17525F275260F75278075240175820118
:10065D001202837525F875260F752780752401758F
:10066D008202120283758200120541AF82758201EA
:10067D00C007120541AE82D0078E05E4FEFCEF42A5
:10068D0006EC4205EE4D7023758202120541AF82D4
:10069D00758203C007120541AE82D0078E05E4FEB8
:1006AD00FCEF4206EC4205EE4D6009120241753D2C
:1006BD0001753E00C3E53B9403E53C9400500302F5
:1006CD000AD7120241120096858241740DB541067A
:1006DD00755A01755B00E55A455B60030208A57507
:1006ED002503752610752780752409758201120260
:1006FD008375250B7526107527807524017582016C
:10070D0012028375251275261075278075240175C3
:10071D008202120283E54170030207EBE54124F5E5
:10072D0050030207EBC3E53F9406E54094004003F8
:10073D000207EB85420885430990000A120F32AE7D
:10074D0082AF83AC417D0075080A8D098C828D8343
:10075D00C007C006120FB8AC82AD83D006D007EC2F
:10076D002EF542ED3FF5437508E875090385428284
:10077D00854383120F098582468583478544088505
:10078D00450990000A120F32E5828583F02546F562
:10079D0044E54735F0F5457508E87509038542824E
:1007AD00854383120F4F858248858349854842854D
:1007BD004943053FE4B53F020540752A0485442BA6
:1007CD0085452C752D037582021202F0752A078559
:1007DD00482B85492C752D037582021202F0740B7E
:1007ED00B5410280028079120241AE448E3A758283
:1007FD0000120518AE458E3A758201120518AE48E5
:10080D008E3A758202120518AE498E3A7582031220
:10081D0005187525167526107527807524047582A3
:10082D00021202839000011201B875251E75261063
:10083D00752780752401758202120283120241E42C
:10084D00F542F543F544F545F548F549753D01F596
:10085D003EF53FF540F53BF53CF55AF55B020AD701
:10086D00740CB54133E4F53FF540F542F543F544DD
:10087D00F545F548F549752A04F52BF52C752D032D
:10088D007582021202F0752A0785482B85492C7551
:10089D002D037582021202F07401B55A0614B55B70
:1008AD00028003020AC575252D75261075278075E2
:1008BD00240975820112028375253375261075275B
:1008CD008075240E758201120283752535752610EB
:1008DD0075278075240175820112028375251275A5
:1008ED002610752780752401758202120283E54159
:1008FD007003020A05E54124F55003020A05C3E51C
:10090D003F9405E54094005038854E08854F099079
:10091D00000A120F3285824E85834FAE417F0075DE
:10092D00080A8F098E828F83120FB8AE82AF83EEC5
:10093D00254EF54EEF354FF54F053FE4B53F02051A
:10094D0040752A04854E2B854F2C752D0575820219
:10095D001202F09002BC1201E8C37405953FE495B4
:10096D00405003020A05E53F75F003A490097D731D
:10097D0002098F0209A30209B70209CB0209DF029E
:10098D0009F375253C75261075278075240475822D
:10099D0002120283806275254275261075278075B7
:1009AD002404758202120283804E75254875261027
:1009BD00752780752404758202120283803A75258D
:1009CD004E752610752780752404758202120283D8
:1009DD00802675255475261075278075240475821B
:1009ED0002120283801275255A752610752780759F
:1009FD002404758202120283740BB5410280030236
:100A0D000AA77435B54E4E7482B54F49E4F53FF5DE
:100A1D0040F54EF54F752A04F52BF52C752D047503
:100A2D0082021202F07525607526107527807524D7
:100A3D000E7582011202839000021201B8755801E1
:100A4D0075590075253375261075278075240E751B
:100A5D0082011202837435B54E077482B54F028040
:100A6D0039E54E454F603375253375261075278052
:100A7D0075240E758201120283E4F54EF54F752A29
:100A8D0004F52BF52C752D057582021202F0E4F597
:100A9D003FF5400556B556020557740CB54119E49E
:100AAD00F53FF540F54EF54F752A04F52BF52C75F0
:100ABD002D057582021202F0740EB54102800302FB
:100ACD0006D2E4F55AF55B0206D2120096858241F4
:100ADD007401B53D0614B53E0280030206C17525AD
:100AED0062752610752780752401758201120283A7
:100AFD0075251275261075278075240175820212D1
:100B0D00028375252D75261075278075240975822C
:100B1D000112028375253375261075278075240EF5
:100B2D00758201120283758200120541AF827582B2
:100B3D0001C007120541AE82D0078E05E4FC4FF5CA
:100B4D004AED4CF54B758202120541AF8275820359
:100B5D00C007120541AE82D0078E05E4FEFC4FF5AD
:100B6D004CED4CF54DE5417003020CF7E54124F5D4
:100B7D005003020CF7C3E53F9406E5409400400393
:100B8D00020C3B854E08854F0990000A120F32AEBC
:100B9D0082AF83AC417D0075080A8D098C828D83EF
:100BAD00C007C006120FB8AC82AD83D006D007ECDB
:100BBD002EF54EED3FF54F7508E8750903854E820C
:100BCD00854F83120F098582528583538550088581
:100BDD00510990000A120F32E5828583F02552F5F6
:100BED0050E55335F0F5517508E8750903854E82CA
:100BFD00854F83120F4F85825485835585544E85BD
:100C0D00554F053FE4B53F020540752A0485502B2D
:100C1D0085512C752D037582021202F0752A0785F8
:100C2D00542B85552C752D037582021202F09002FE
:100C3D00BC1201E8C37406953FE495405003020CC5
:100C4D00F7E53F75F003A4900C5873020C6D020C80
:100C5D0081020C95020CA9020CBD020CD1020CE50F
:100C6D007525697526107527807524047582021205
:100C7D00028380767525707526107527807524047E
:100C8D00758202120283806275257775261075278D
:100C9D0080752404758202120283804E75257E753F
:100CAD002610752780752404758202120283803AFE
:100CBD007525857526107527807524047582021299
:100CCD000283802675258C75261075278075240462
:100CDD007582021202838012752593752610752771
:100CED0080752404758202120283740BB541028053
:100CFD0003020DB9E550B54A76E551B54B71E55492
:100D0D00B54C6CE555B54D67752560752610752785
:100D1D008075240E758201120283E4F53FF540F5CE
:100D2D004EF54FF550F551F554F555900002120161
:100D3D00B8755801755900752A0485502B85512CAD
:100D4D00752D037582021202F0752A0785542B85C5
:100D5D00552C752D037582021202F07525337526FB
:100D6D001075278075240E758201120283803D75E2
:100D7D00253375261075278075240E758201120294
:100D8D0083E4F54EF54FF550F551F554F5557525B0
:100D9D0069752610752780752404758202120283E9
:100DAD00E4F53FF5400556B556020557740CB541AF
:100DBD0033E4F53FF540F54EF54FF550F551F5544B
:100DCD00F555752A04F52BF52C752D037582021238
:100DDD0002F0752A0785542B85552C752D037582C8
:100DED00021202F0C3E5569403E5579400400FC27A
:100DFD00A39001F41201E8D2A3E4F556F557752A34
:100E0D000F85562B85572C752D027582021202F017
:100E1D000206C1C020C0E0C0F0C082C083C007C0C0
:100E2D0006C005C004C003C002C001C000C0D0751B
:100E3D00D000758CFC758A18055CE4B55C02055D07
:100E4D007464B55C06E4B55D028003020EEC20B45B
:100E5D001720B51420B41120B50E9000011201B861
:100E6D00053BE4B53B02053CE55845597003020EC0
:100E7D00E7755E0075B0809000031201E875B04013
:100E8D009000031201E875B0209000031201E8757F
:100E9D00B0109000031201E8055E746A255E50D40F
:100EAD009000021201B8755E0075B010900003122B
:100EBD0001E875B0209000031201E875B040900074
:100ECD00031201E875B0809000031201E8055E740D
:100EDD007E255E50D4E4F558F559E4F55CF55DD00A
:100EED00D0D000D001D002D003D004D005D006D090
:0C0EFD0007D083D082D0F0D0E0D02032AB
:100FF2004C3A4C574800433A43584C2026204A4D1D
:101002000020202020202020004D4F44453A53004C
:1010120050443A00537563636573730020202020A7
:101022002020202020202020202000444F4F523A10
:101032000043004D4F44453A4D00303030303000CF
:10104200303030302A003030302A2A0030302A2A1C
:101052002A00302A2A2A2A002A2A2A2A2A004F006B
:101062004D4F44453A45003030303030300030305A
:101072003030302A00303030302A2A003030302AE6
:101082002A2A0030302A2A2A2A00302A2A2A2A2A00
:08109200002A2A2A2A2A2A005A
:100F09007A10E4FBFCE58225E0F582E58333F5837D
:100F1900EB33FBEC33FCEB9508F5F0EC9509400657
:090F2900FCABF0438201DADD2289
:06004000E478FFF6D8FD94
:10001E007900E94400601B7A0090109A780175A06F
:10002E0000E493F2A308B8000205A0D9F4DAF27541
:02003E00A0FF21
:100F3200E5828508F0A4C582C0F08509F0A4D0F04E
:100F420025F0C5838508F0A42583F58322E50845AD
:100F52000960467A01E50825E0F508E50933401203
:100F6200F509E5829508E583950940030A80E6C301
:100F7200E50913F509E50813F508C3E5829508F5B7
:100F8200F0E58395094005F58385F082C3E50913F1
:0A0F9200F509E50813F508DAE1227D
:100046007800E84400600A790175A000E4F309D855
:10005600FC7800E84400600C7900900001E4F0A30D
:04006600D8FCD9FAEF
:0D00110075815E120FEEE582600302000EA5
:100F9C0020F71430F6148883A88220F507E6A8837E
:100FAC0075830022E280F7E49322E022C2D5E58328
:100FBC0030E70DD2D5E4C39582F582E49583F583B1
:100FCC00E50930E70BE4C39508F508E49509F50944
:100FDC00120F4F30D50BE4C39582F582E49583F55F
:060FEC0083227582002241
:00000001FF
