:0400000002001132B7
:03000B00020BCB1A
:03006A0002000E83
:03000E00020642A5
:20006D007E327F007C907D01EC24FFFAED34FFFB8A048B05EA4B70F0EE24FFFCEF34FFFDB7
:20008D008C068D07EC4D70DC227F0075B0FFC2B420B00B12006D30B0FD12006D7F0120B166
:2000AD000B12006D30B1FD12006D7F0420B20B12006D30B2FD12006D7F0720B30B12006D2C
:2000CD0030B3FD12006D7F0A75B0FFC2B520B00B12006D30B0FD12006D7F0220B10B12006B
:2000ED006D30B1FD12006D7F0520B20B12006D30B2FD12006D7F0820B30B12006D30B3FD27
:20010D0012006D7F0B75B0FFC2B620B00B12006D30B0FD12006D7F0320B10B12006D30B1B9
:20012D00FD12006D7F0620B20B12006D30B2FD12006D7F0920B30B12006D30B3FD12006DB3
:20014D007F0C75B0FFC2B720B00B12006D30B0FD12006D7F0D20B10B12006D30B1FD1200DD
:20016D006D7F0E20B20B12006D30B2FD12006D7F0F20B30B12006D30B3FD12006D7F108F56
:20018D0082227E147F007C907D01EC24FFFAED34FFFB8A048B05EA4B70F0EE24FFFCEF340C
:2001AD00FFFD8C068D07EC4D70DC228582088583099003E8120CDDAE82AF83EE4F601B7C3D
:2001CD00907D01EC24FFFAED34FFFB8A048B05EA4B70F01EBEFF011F80E122AE82AF83EE5F
:2001ED004F601B7C907D01EC24FFFAED34FFFB8A048B05EA4B70F01EBEFF011F80E1227FCA
:20020D00027EEFEE14FDFE70FAEF14FDFF70F422AF82C290C2918F80D2A512020CC2A50291
:20022D00020CAF82D290C2918F80D2A512020CC2A502020C75823812021D75820C12021D0C
:20024D0075820612021D75820102021DAF82BF010BAF211F74804FF58202021DAF21743F01
:20026D002FFF74804FF58202021D85222112025985238202022F8524211202597F00EF250C
:20028D0025FCE43526FDAE278C828D838EF0120D47FE600C8E82C00712022FD0070F80DE55
:2002AD0022AE82AF837C017D007B008B017A00C3E99528EA64808529F063F08095F0501E97
:2002CD008E088F098C828D83C007C006C003120CDDAC82AD83D003D006D0070B80CD8C8236
:2002ED008D8322852A21120259AF2DEF603F8F057E00ED24FFF528EE34FFF52990000AC040
:20030D00071202AEAD82AE838D088E09852B82852C83120CB475080A750900120CFAAD82F7
:20032D0074302DF58212022FD0071F80BE22852E21120259E53020E70C75822B12022FAE53
:20034D002FAF30800F75822D12022FC3E4952FFEE49530FFAD31ED60518D037C00EB24FFE5
:20036D00F528EC34FFF52990000AC007C006C0051202AEAB82AC83D005D006D0078B088C6B
:20038D00098E828F83C007C006C005120CB475080A750900120CFAAB8274302BF58212025D
:2003AD002FD005D006D0071D80AC22853221120259AF35EF60558F057E00ED24FFF528EE1A
:2003CD0034FFF529900010C0071202AEAD82AE838D088E09853382853483120CB4E58285D6
:2003ED0083F0D007540FFDBD0A0050108D0674302EF582C00712022FD007800C74372DF509
:20040D0082C00712022FD0071F80A822853621120259AF39EF603A8F057E00ED24FFF5280A
:20042D00EE34FFF529900002C0071202AEAD82AE838D088E09853782853883120CB4E58212
:20044D008583F054012430F58212022FD0071F80C322D292D297C292C29722C292D297D2AE
:20046D009222AF827E008EF005F07C80E4FD3392D28008A2D2ED13FDEC13FCD5F0F58F02E6
:20048D007B00EA5204EB5205EC4D24FF9292D297C2970EBE080040CE227F00D2927E00D2D9
:2004AD009730921B8EF005F07C80E4FD3392D28008A2D2ED13FDEC13FCD5F0F5EC4207C22F
:2004CD00970EBE080040D88F8222E58224FF9292D297C29722D292D297A292E433F582C276
:2004ED0097227E0A7F007C907D01EC24FFFAED34FFFB8A048B05EA4B70F0EE24FFFCEF349E
:20050D00FFFD8C068D07EC4D70DC22AF82C00712045F7582A012046F1204E2D0078F82128A
:20052D00046F1204E2853A8212046F1204E21204680204EFAF82C00712045F7582A01204F8
:20054D006F1204E2D0078F8212046F1204E212045F7582A112046F1204E21204A6AF8275D6
:20056D008201C0071204D7120468D0078F82227E0A7F007C907D01EC24FFFAED34FFFB8A70
:20058D00048B05EA4B70F0EE24FFFCEF34FFFD8C068D07EC4D70DC227E007F0020B00D1240
:2005AD00057C30B0FD12057C7E017F0020B10D12057C30B1FD12057C7E027F0020B20D126D
:2005CD00057C30B2FD12057C7E037F0020B30D12057C30B3FD12057C7E047F0020B40D1241
:2005ED00057C30B4FD12057C7E057F0020B50D12057C30B5FD12057C7E067F0020B60D1215
:20060D00057C30B6FD12057C7E077F0020B70D12057C30B7FD12057C7E087F008E828F83BD
:20062D0022438901C28DD28C758CFC758A18D2AFD2A9C2B92212024112062EC2A2C2A0C241
:20064D00A175259D75260D7527807524017582011202837525A375260D75278075240175B8
:20066D008202120283758200120541AF82758201C007120541AE82D0078E05E4FEFCEF4212
:20068D0006EC4205EE4D7023758202120541AF82758203C007120541AE82D0078E05E4FE2F
:2006AD00FCEF4206EC4205EE4D6009120241753D01753E00C3E53B9403E53C9400500302E4
:2006CD00087A1202411200968582417525AE75260D7527807524017582011202837525B5C2
:2006ED0075260D752780752401758202120283E54170030207C5E54124F550030207C5C375
:20070D00E53F9406E540940040030207C585420885430990000A120CDDAE82AF83AC417D43
:20072D000075080A8D098C828D83C007C006120D63AC82AD83D006D007EC2EF542ED3FF5E5
:20074D00437508E8750903854282854383120CB485824685834785440885450990000A1211
:20076D000CDDE5828583F02546F544E54735F0F5457508E8750903854282854383120CFA63
:20078D00858248858349854842854943053FE4B53F020540752A0485442B85452C752D03F7
:2007AD007582021202F0752A0785482B85492C752D037582021202F0740BB54170120241BB
:2007CD00AE448E3A758200120518AE458E3A758201120518AE488E3A758202120518AE496D
:2007ED008E3A7582031205187525B975260D7527807524047582021202839000011201B85B
:20080D007525C175260D752780752401758202120283120241E4F544F545F548F549753DA9
:20082D0001F53EF53FF540F53BF53C8040740CB5410280030206D2E4F53FF540F542F5435C
:20084D00F544F545F548F549752A04F52BF52C752D037582021202F0752A0785482B8549AB
:20086D002C752D037582021202F00206D21200968582417401B53D0614B53E0280030206D2
:20088D00C17525D075260D7527807524017582011202837525B575260D7527807524017511
:2008AD0082021202837525D775260D7527807524097582011202837525DD75260D7527806F
:2008CD0075240E758201120283752A0485502B85512C752D037582021202F0752A0785540F
:2008ED002B85552C752D037582021202F0758200120541AF82758201C007120541AE82D081
:20090D00078E05E4FC4FF54AED4CF54B758202120541AF82758203C007120541AE82D007A7
:20092D008E05E4FEFC4FF54CED4CF54DE5417003020AAAE54124F55003020AAAC3E53F941C
:20094D0006E54094004003020A02854E08854F0990000A120CDDAE82AF83AC417D007508E4
:20096D000A8D098C828D83C007C006120D63AC82AD83D006D007EC2EF54EED3FF54F750848
:20098D00E8750903854E82854F83120CB485825285835385500885510990000A120CDDE579
:2009AD00828583F02552F550E55335F0F5517508E8750903854E82854F83120CFA8582544C
:2009CD0085835585544E85554F053FE4B53F020540752A0485502B85512C752D03758202B7
:2009ED001202F0752A0785542B85552C752D037582021202F09001F41201E8C37406953F03
:200A0D00E495405003020AAAE53F75F003A4900A1F73020AAA020A34020A48020A5C020AED
:200A2D0070020A84020A987525DF75260D75278075240475820212028380627525E675269E
:200A4D000D752780752404758202120283804E7525ED75260D752780752404758202120270
:200A6D0083803A7525F475260D75278075240475820212028380267525FB75260D752780AE
:200A8D00752404758202120283801275250275260E752780752404758202120283740BB5C8
:200AAD0041028003020B64E550B54A76E551B54B71E554B54C6CE555B54D6775250975261A
:200ACD000E75278075240E758201120283E4F53FF540F54EF54FF550F551F554F555900027
:200AED00021201B8755801755900752A0485502B85512C752D037582021202F0752A07850E
:200B0D00542B85552C752D037582021202F07525DD75260D75278075240E75820112028330
:200B2D0080357525DD75260D75278075240E758201120283E4F54EF54F75250B75260E7554
:200B4D002780752404758202120283E4F53FF5400556B556020557740CB54133E4F53FF5ED
:200B6D0040F54EF54FF550F551F554F555752A04F52BF52C752D037582021202F0752A0757
:200B8D0085542B85552C752D037582021202F0C3E5569403E5579400400FC2A39001F412EC
:200BAD0001E8D2A3E4F556F557752A0F85562B85572C752D027582021202F00206C1C02049
:200BCD00C0E0C0F0C082C083C007C006C005C004C003C002C001C000C0D075D000758CFC45
:200BED00758A18055AE4B55A02055B7464B55A06E4B55B028003020C9720B41720B514201E
:200C0D00B41120B50E9000011201B8053BE4B53B02053CE55845597003020C92755C007538
:200C2D00B0809000031201E875B0409000031201E875B0209000031201E875B0109000035B
:200C4D001201E8055C747E255C50D49000021201B8755C0075B0109000031201E875B0205E
:200C6D009000031201E875B0409000031201E875B0809000031201E8055C747E255C50D4BB
:200C8D00E4F558F559E4F55AF55BD0D0D000D001D002D003D004D005D006D007D083D08264
:070CAD00D0F0D0E0D02032AE
:200D9D004C3A4C574800433A43584C2026204A4D004D4F44453A530050443A005375636356
:200DBD00657373002020202020202020202020202020004D4F44453A4500444F4F523A00F9
:200DDD00430030303030302300303030302323003030302323230030302323232300302362
:150DFD002323232300232323232323004F003030303030300014
:200CB4007A10E4FBFCE58225E0F582E58333F583EB33FBEC33FCEB9508F5F0EC9509400654
:090CD400FCABF0438201DADD22E1
:06004000E478FFF6D8FD94
:20001E007900E94400601B7A00900E12780175A000E493F2A308B8000205A0D9F4DAF27568
:02003E00A0FF21
:1D0CDD00E5828508F0A4C582C0F08509F0A4D0F025F0C5838508F0A42583F58322D9
:200CFA00E508450960467A01E50825E0F508E509334012F509E5829508E583950940030AC7
:200D1A0080E6C3E50913F509E50813F508C3E5829508F5F0E58395094005F58385F082C36B
:0D0D3A00E50913F509E50813F508DAE122D3
:200046007800E84400600A790175A000E4F309D8FC7800E84400600C7900900001E4F0A3B8
:04006600D8FCD9FAEF
:0D00110075815C120D99E582600302000EFE
:1C0D470020F71430F6148883A88220F507E6A88375830022E280F7E49322E022BB
:200D6300C2D5E58330E70DD2D5E4C39582F582E49583F583E50930E70BE4C39508F508E4C8
:160D83009509F509120CFA30D50BE4C39582F582E49583F58322CB
:040D9900758200223D
:00000001FF
