:0400000002001132B7
:03000B0002097176
:03006A0002000E83
:03000E00020642A5
:20006D007E147F007C907D01EC24FFFAED34FFFB8A048B05EA4B70F0EE24FFFCEF34FFFDD5
:20008D008C068D07EC4D70DC227F0075B0FFC2B420B00B12006D30B0FD12006D7F0120B166
:2000AD000B12006D30B1FD12006D7F0420B20B12006D30B2FD12006D7F0720B30B12006D2C
:2000CD0030B3FD12006D7F0A75B0FFC2B520B00B12006D30B0FD12006D7F0220B10B12006B
:2000ED006D30B1FD12006D7F0520B20B12006D30B2FD12006D7F0820B30B12006D30B3FD27
:20010D0012006D7F0B75B0FFC2B620B00B12006D30B0FD12006D7F0320B10B12006D30B1B9
:20012D00FD12006D7F0620B20B12006D30B2FD12006D7F0920B30B12006D30B3FD12006DB3
:20014D007F0C75B0FFC2B720B00B12006D30B0FD12006D7F0D20B10B12006D30B1FD1200DD
:20016D006D7F0E20B20B12006D30B2FD12006D7F0F20B30B12006D30B3FD12006D7F108F56
:20018D0082227E147F007C907D01EC24FFFAED34FFFB8A048B05EA4B70F0EE24FFFCEF340C
:2001AD00FFFD8C068D07EC4D70DC228582088583099003E8120A0DAE82AF83EE4F601B7C0F
:2001CD00907D01EC24FFFAED34FFFB8A048B05EA4B70F01EBEFF011F80E122AE82AF83EE5F
:2001ED004F601B7C907D01EC24FFFAED34FFFB8A048B05EA4B70F01EBEFF011F80E1227FCA
:20020D00027EEFEE14FDFE70FAEF14FDFF70F422AF82C290C2918F80D2A512020CC2A50291
:20022D00020CAF82D290C2918F80D2A512020CC2A502020C75823812021D75820C12021D0C
:20024D0075820612021D75820102021DAF82BF010BAF211F74804FF58202021DAF21743F01
:20026D002FFF74804FF58202021D85222112025985238202022F8524211202597F00EF250C
:20028D0025FCE43526FDAE278C828D838EF0120A77FE600C8E82C00712022FD0070F80DE28
:2002AD0022AE82AF837C017D007B008B017A00C3E99528EA64808529F063F08095F0501E97
:2002CD008E088F098C828D83C007C006C003120A0DAC82AD83D003D006D0070B80CD8C8208
:2002ED008D8322852A21120259AF2DEF603F8F057E00ED24FFF528EE34FFF52990000AC040
:20030D00071202AEAD82AE838D088E09852B82852C831209E475080A750900120A2AAD829C
:20032D0074302DF58212022FD0071F80BE22852E21120259E53020E70C75822B12022FAE53
:20034D002FAF30800F75822D12022FC3E4952FFEE49530FFAD31ED60518D037C00EB24FFE5
:20036D00F528EC34FFF52990000AC007C006C0051202AEAB82AC83D005D006D0078B088C6B
:20038D00098E828F83C007C006C0051209E475080A750900120A2AAB8274302BF582120202
:2003AD002FD005D006D0071D80AC22853221120259AF35EF60558F057E00ED24FFF528EE1A
:2003CD0034FFF529900010C0071202AEAD82AE838D088E098533828534831209E4E58285A9
:2003ED0083F0D007540FFDBD0A0050108D0674302EF582C00712022FD007800C74372DF509
:20040D0082C00712022FD0071F80A822853621120259AF39EF603A8F057E00ED24FFF5280A
:20042D00EE34FFF529900002C0071202AEAD82AE838D088E098537828538831209E4E582E5
:20044D008583F054012430F58212022FD0071F80C322D292D297C292C29722C292D297D2AE
:20046D009222AF827E008EF005F07C80E4FD3392D28008A2D2ED13FDEC13FCD5F0F58F02E6
:20048D007B00EA5204EB5205EC4D24FF9292D297C2970EBE080040CE227F00D2927E00D2D9
:2004AD009730921B8EF005F07C80E4FD3392D28008A2D2ED13FDEC13FCD5F0F5EC4207C22F
:2004CD00970EBE080040D88F8222E58224FF9292D297C29722D292D297A292E433F582C276
:2004ED0097227E0A7F007C907D01EC24FFFAED34FFFB8A048B05EA4B70F0EE24FFFCEF349E
:20050D00FFFD8C068D07EC4D70DC22AF82C00712045F7582A012046F1204E2D0078F82128A
:20052D00046F1204E2853A8212046F1204E21204680204EFAF82C00712045F7582A01204F8
:20054D006F1204E2D0078F8212046F1204E212045F7582A112046F1204E21204A6AF8275D6
:20056D008201C0071204D7120468D0078F82227E0A7F007C907D01EC24FFFAED34FFFB8A70
:20058D00048B05EA4B70F0EE24FFFCEF34FFFD8C068D07EC4D70DC227E007F0020B00D1240
:2005AD00057C30B0FD12057C7E017F0020B10D12057C30B1FD12057C7E027F0020B20D126D
:2005CD00057C30B2FD12057C7E037F0020B30D12057C30B3FD12057C7E047F0020B40D1241
:2005ED00057C30B4FD12057C7E057F0020B50D12057C30B5FD12057C7E067F0020B60D1215
:20060D00057C30B6FD12057C7E077F0020B70D12057C30B7FD12057C7E087F008E828F83BD
:20062D0022438901C28DD28C758CFC758A18D2AFD2A9C2B92212024112062ED2A27525CDEE
:20064D0075260A7527807524017582011202837525D375260A7527807524017582021202CE
:20066D0083758200120541AF82758201C007120541AE82D0078E05E4FEFCEF4206EC420571
:20068D00EE4D6009120241753D01753E00C3E53B9403E53C940050030207C5120241120037
:2006AD00968582417525DE75260A7527807524017582011202837525E575260A7527807538
:2006CD002401758202120283752A0485422B85432C752D047582021202F0E541605AE54126
:2006ED0024F54054E53F9404E5409400504A85420885430990000A120A0D8582428583433A
:20070D00AE417F0075080A8F098E828F83120A93AE82AF83EE2542F542EF3543F543053F9D
:20072D00E4B53F020540752A0485422B85432C752D047582021202F0740BB54155AE428E19
:20074D003A758200120518AE438E3A7582011205187525E975260A75278075240475820272
:20076D001202839000011201B87525F175260A752780752401758202120283120241E4F5D5
:20078D0042F543753D01F53EF53FF540F53BF53C8026740CB5410280030206ABE4F53FF5C1
:2007AD0040F542F543752A04F52BF52C752D047582021202F00206AB1200968582417401DE
:2007CD00B53D0614B53E02800302069A75250075260B7527807524017582011202837525C7
:2007ED00E575260A75278075240175820212028375250775260B752780752409758201120D
:20080D00028375250D75260B75278075240E758201120283752A0485462B85472C752D0470
:20082D007582021202F0752A0885442B85452C752D047582021202F0758200120541AF82FA
:20084D00758201C007120541AE82D0078E05E4FEFC4FF544ED4CF545E541605AE54124F5E2
:20086D004054E53F9404E5409400504A85460885470990000A120A0D858246858347AE41D2
:20088D007F0075080A8F098E828F83120A93AE82AF83EE2546F546EF3547F547053FE4B562
:2008AD003F020540752A0185462B85472C752D047582021202F0740BB54102800302094B24
:2008CD00E546B5444CE547B5454775250F75260B75278075240E758201120283752A048565
:2008ED00462B85472C752D047582021202F0E4F53FF540F546F5479000021201B875250D17
:20090D0075260B75278075240E758201120283801275250D75260B75278075240E75820138
:20092D00120283752A0485462B85472C752D047582021202F0E4F546F547F53FF540740C9B
:20094D00B54102800302069AE4F53FF540F546F547752A04F52BF52C752D04758202120212
:20096D00F002069AC020C0E0C0F0C082C083C007C006C005C004C003C002C001C000C0D077
:20098D0075D000758CFC758A180548E4B54802054974F4B548247401B5491F20B41720B598
:2009AD001420B41120B50E9000011201B8053BE4B53B02053CE4F548F549D0D0D000D001FB
:1709CD00D002D003D004D005D006D007D083D082D0F0D0E0D02032E1
:200ACD004C3A4C574800433A43584C2026204A4D004D4F44453A530050443A005375636329
:200AED00657373002020202020202020202020202020004D4F44453A4500444F4F523A00CC
:040B0D0043004F0052
:2009E4007A10E4FBFCE58225E0F582E58333F583EB33FBEC33FCEB9508F5F0EC9509400627
:090A0400FCABF0438201DADD22B3
:06004000E478FFF6D8FD94
:20001E007900E94400601B7A00900B11780175A000E493F2A308B8000205A0D9F4DAF2756C
:02003E00A0FF21
:1D0A0D00E5828508F0A4C582C0F08509F0A4D0F025F0C5838508F0A42583F58322AB
:200A2A00E508450960467A01E50825E0F508E509334012F509E5829508E583950940030A99
:200A4A0080E6C3E50913F509E50813F508C3E5829508F5F0E58395094005F58385F082C33E
:0D0A6A00E50913F509E50813F508DAE122A6
:200046007800E84400600A790175A000E4F309D8FC7800E84400600C7900900001E4F0A3B8
:04006600D8FCD9FAEF
:0D001100758149120AC9E582600302000EE4
:1C0A770020F71430F6148883A88220F507E6A88375830022E280F7E49322E0228E
:200A9300C2D5E58330E70DD2D5E4C39582F582E49583F583E50930E70BE4C39508F508E49B
:160AB3009509F509120A2A30D50BE4C39582F582E49583F5832270
:040AC9007582002210
:00000001FF
