:0400000002001132B7
:03000B00020F4A97
:03006A0002000E83
:03000E00020642A5
:20006D007E327F007C907D01EC24FFFAED34FFFB8A048B05EA4B70F0EE24FFFCEF34FFFDB7
:20008D008C068D07EC4D70DC227F0075B0FFC2B420B00B12006D30B0FD12006D7F0120B166
:2000AD000B12006D30B1FD12006D7F0420B20B12006D30B2FD12006D7F0720B30B12006D2C
:2000CD0030B3FD12006D7F0A75B0FFC2B520B00B12006D30B0FD12006D7F0220B10B12006B
:2000ED006D30B1FD12006D7F0520B20B12006D30B2FD12006D7F0820B30B12006D30B3FD27
:20010D0012006D7F0B75B0FFC2B620B00B12006D30B0FD12006D7F0320B10B12006D30B1B9
:20012D00FD12006D7F0620B20B12006D30B2FD12006D7F0920B30B12006D30B3FD12006DB3
:20014D007F0C75B0FFC2B720B00B12006D30B0FD12006D7F0D20B10B12006D30B1FD1200DD
:20016D006D7F0E20B20B12006D30B2FD12006D7F0F20B30B12006D30B3FD12006D7F108F56
:20018D0082227E147F007C907D01EC24FFFAED34FFFB8A048B05EA4B70F0EE24FFFCEF340C
:2001AD00FFFD8C068D07EC4D70DC228582088583099003E812105FAE82AF83EE4F601B7CB7
:2001CD00907D01EC24FFFAED34FFFB8A048B05EA4B70F01EBEFF011F80E122AE82AF83EE5F
:2001ED004F601B7C907D01EC24FFFAED34FFFB8A048B05EA4B70F01EBEFF011F80E1227FCA
:20020D00027EEFEE14FDFE70FAEF14FDFF70F422AF82C290C2918F80D2A512020CC2A50291
:20022D00020CAF82D290C2918F80D2A512020CC2A502020C75823812021D75820C12021D0C
:20024D0075820612021D75820102021DAF82BF010BAF211F74804FF58202021DAF21743F01
:20026D002FFF74804FF58202021D85222112025985238202022F8524211202597F00EF250C
:20028D0025FCE43526FDAE278C828D838EF01210C9FE600C8E82C00712022FD0070F80DED0
:2002AD0022AE82AF837C017D007B008B017A00C3E99528EA64808529F063F08095F0501E97
:2002CD008E088F098C828D83C007C006C00312105FAC82AD83D003D006D0070B80CD8C82B0
:2002ED008D8322852A21120259AF2DEF603F8F057E00ED24FFF528EE34FFF52990000AC040
:20030D00071202AEAD82AE838D088E09852B82852C8312103675080A75090012107CAD82EB
:20032D0074302DF58212022FD0071F80BE22852E21120259E53020E70C75822B12022FAE53
:20034D002FAF30800F75822D12022FC3E4952FFEE49530FFAD31ED60518D037C00EB24FFE5
:20036D00F528EC34FFF52990000AC007C006C0051202AEAB82AC83D005D006D0078B088C6B
:20038D00098E828F83C007C006C00512103675080A75090012107CAB8274302BF582120251
:2003AD002FD005D006D0071D80AC22853221120259AF35EF60558F057E00ED24FFF528EE1A
:2003CD0034FFF529900010C0071202AEAD82AE838D088E09853382853483121036E5828550
:2003ED0083F0D007540FFDBD0A0050108D0674302EF582C00712022FD007800C74372DF509
:20040D0082C00712022FD0071F80A822853621120259AF39EF603A8F057E00ED24FFF5280A
:20042D00EE34FFF529900002C0071202AEAD82AE838D088E09853782853883121036E5828C
:20044D008583F054012430F58212022FD0071F80C322D292D297C292C29722C292D297D2AE
:20046D009222AF827E008EF005F07C80E4FD3392D28008A2D2ED13FDEC13FCD5F0F58F02E6
:20048D007B00EA5204EB5205EC4D24FF9292D297C2970EBE080040CE227F00D2927E00D2D9
:2004AD009730921B8EF005F07C80E4FD3392D28008A2D2ED13FDEC13FCD5F0F5EC4207C22F
:2004CD00970EBE080040D88F8222E58224FF9292D297C29722D292D297A292E433F582C276
:2004ED0097227E0A7F007C907D01EC24FFFAED34FFFB8A048B05EA4B70F0EE24FFFCEF349E
:20050D00FFFD8C068D07EC4D70DC22AF82C00712045F7582A012046F1204E2D0078F82128A
:20052D00046F1204E2853A8212046F1204E21204680204EFAF82C00712045F7582A01204F8
:20054D006F1204E2D0078F8212046F1204E212045F7582A112046F1204E21204A6AF8275D6
:20056D008201C0071204D7120468D0078F82227E0A7F007C907D01EC24FFFAED34FFFB8A70
:20058D00048B05EA4B70F0EE24FFFCEF34FFFD8C068D07EC4D70DC227E007F0020B00D1240
:2005AD00057C30B0FD12057C7E017F0020B10D12057C30B1FD12057C7E027F0020B20D126D
:2005CD00057C30B2FD12057C7E037F0020B30D12057C30B3FD12057C7E047F0020B40D1241
:2005ED00057C30B4FD12057C7E057F0020B50D12057C30B5FD12057C7E067F0020B60D1215
:20060D00057C30B6FD12057C7E077F0020B70D12057C30B7FD12057C7E087F008E828F83BD
:20062D0022438901C28DD28C758CFC758A18D2AFD2A9C2B92212024112062EC2A2C2A0C241
:20064D00A175251F75261175278075240175820112028375252575261175278075240175AC
:20066D008202120283758200120541AF82758201C007120541AE82D0078E05E4FEFCEF4212
:20068D0006EC4205EE4D7023758202120541AF82758203C007120541AE82D0078E05E4FE2F
:2006AD00FCEF4206EC4205EE4D6009120241753D01753E00C3E53B9403E53C9400500302E4
:2006CD00089412024112009685824175253075261175278075240975820112028375253897
:2006ED0075261175278075240175820112028375253F7526117527807524017582021202B4
:20070D0083E54170030207D7E54124F550030207D7C3E53F9406E540940040030207D7857C
:20072D00420885430990000A12105FAE82AF83AC417D0075080A8D098C828D83C007C006E2
:20074D001210E5AC82AD83D006D007EC2EF542ED3FF5437508E87509038542828543831239
:20076D00103685824685834785440885450990000A12105FE5828583F02546F544E5473567
:20078D00F0F5457508E875090385428285438312107C858248858349854842854943053F06
:2007AD00E4B53F020540752A0485442B85452C752D037582021202F0752A0785482B854972
:2007CD002C752D037582021202F0740BB54178120241AE448E3A758200120518AE458E3A61
:2007ED00758201120518AE488E3A758202120518AE498E3A7582031205187525437526116E
:20080D007527807524047582021202839000011201B875254B7526117527807524017582E8
:20082D0002120283120241E4F542F543F544F545F548F549753D01F53EF53FF540F53BF508
:20084D003CF55AF55B8040740CB5410280030206D2E4F53FF540F542F543F544F545F548AF
:20086D00F549752A04F52BF52C752D037582021202F0752A0785482B85492C752D03758273
:20088D00021202F00206D21200968582417401B53D0614B53E0280030206C175253F752645
:2008AD0011752780752401758202120283758200120541AF82758201C007120541AE82D03D
:2008CD00078E05E4FC4FF54AED4CF54B758202120541AF82758203C007120541AE82D007E8
:2008ED008E05E4FC4FF54CED4CF54D740DB54108055AE4B55A02055BC37464955AE4955BDC
:20090D005005E4F55AF55B7401555AFE7F00BE0105BF00028003020C2775255A75261175FF
:20092D00278075240975820112028375256075261175278075240E758201120283752562DE
:20094D0075261175278075240F758202120283752560752611752780752409758202120219
:20096D008375253F7526117527807524017582021202837525657526117527807524017546
:20098D008201120283E5417003020A9CE54124F55003020A9CC3E53F9405E54094005038F4
:2009AD00854E08854F0990000A12105F85824E85834FAE417F0075080A8F098E828F8312EA
:2009CD0010E5AE82AF83EE254EF54EEF354FF54F053FE4B53F020540752A04854E2B854F80
:2009ED002C752D057582021202F09002BC1201E8C37405953FE495405003020A9CE53F7574
:200A0D00F003A4900A1473020A26020A3A020A4E020A62020A76020A8A75256C7526117592
:200A2D00278075240475820212028380627525727526117527807524047582021202838072
:200A4D004E752578752611752780752404758202120283803A75257E752611752780752401
:200A6D00047582021202838026752584752611752780752404758202120283801275258A66
:200A8D00752611752780752404758202120283740BB541028003020C017435B54E077482A2
:200AAD00B54F028003020C01E4F53FF540F54EF54F120096858241740EB54108055EE4B551
:200ACD005E02055FC37402955EE4955F5005E4F55EF55FE4B55E05B55F0280187401B55E2F
:200AED000614B55F0280217402B55E06E4B55F02802A803A75259075261175278075240A96
:200B0D00758201120283802675259775261175278075240A758201120283801275259E7529
:200B2D00261175278075240A758201120283740FB541028003020ABEE4B55E05B55F0280C9
:200B4D00197401B55E0614B55F02804F7402B55E06E4B55F02806A020C01753A00758200C0
:200B6D00120518753A00758201120518753A00758202120518753A0075820312051875251A
:200B8D00A57526117527807524047582021202839001F41201E81202418059753A0075825A
:200BAD00041205187525AE7526117527807524047582021202839003E81201E8120241806D
:200BCD00337558017559007525B77526117527807524097582011202837525BD7526117577
:200BED00278075240E7582011202839003E81201E8120241740CB5410280030206C1E4F5A3
:200C0D003FF540F54EF54F752A04F52BF52C752D057582021202F00206C17525B77526117E
:200C2D007527807524097582011202837525C075261175278075240E75820112028375820B
:200C4D0004120541E5826007E4F55CF55D8006755C01755D007401B55C0614B55D02800375
:200C6D00020F127525C2752611752780752401758201120283E5417003020E07E54124F508
:200C8D005003020E07C3E53F9406E54094004003020D4B854E08854F0990000A12105FAE85
:200CAD0082AF83AC417D0075080A8D098C828D83C007C0061210E5AC82AD83D006D007EC43
:200CCD002EF54EED3FF54F7508E8750903854E82854F831210368582528583538550088526
:200CED00510990000A12105FE5828583F02552F550E55335F0F5517508E8750903854E8279
:200D0D00854F8312107C85825485835585544E85554F053FE4B53F020540752A0485502BC3
:200D2D0085512C752D037582021202F0752A0785542B85552C752D037582021202F090021E
:200D4D00BC1201E8C37406953FE495405003020E07E53F75F003A4900D6873020D7D020D58
:200D6D0091020DA5020DB9020DCD020DE1020DF57525C975261175278075240475820212B6
:200D8D00028380767525D075261175278075240475820212028380627525D77526117527D1
:200DAD0080752404758202120283804E7525DE752611752780752404758202120283803A84
:200DCD007525E575261175278075240475820212028380267525EC75261175278075240401
:200DED0075820212028380127525F3752611752780752404758202120283740BB54102804B
:200E0D0003020EDAE550B54A07E551B54B028003020E9DE554B54C78E555B54D73E550455A
:200E2D0051606DE554455560677525FA75261175278075240E758201120283E4F53FF5400E
:200E4D00F54EF54FF550F551F554F5559000021201B8755801755900752A0485502B85516E
:200E6D002C752D037582021202F0752A0785542B85552C752D037582021202F07525C07576
:200E8D00261175278075240E758201120283803D7525C075261175278075240E758201122C
:200EAD000283E4F54EF54FF550F551F554F5557525C9752611752780752404758202120242
:200ECD0083E4F53FF5400556B556020557740CB54133E4F53FF540F54EF54FF550F551F574
:200EED0054F555752A04F52BF52C752D037582021202F0752A0785542B85552C752D0375F7
:200F0D0082021202F0C3E5569405E55794004018C2A39001F41201E8D2A3753A0175820478
:200F2D00120518E4F556F557752A0F85562B85572C752D027582021202F00206C1C020C034
:200F4D00E0C0F0C082C083C007C006C005C004C003C002C001C000C0D075D000758CFC750C
:200F6D008A180560E4B5600205617464B56006E4B56102800302101920B41720B51420B4B7
:200F8D001120B50E9000021201B8053BE4B53B02053CE5584559700302101475620075B02C
:200FAD00809000031201E875B0409000031201E875B0209000031201E875B0109000031276
:200FCD0001E80562746A256250D49000021201B875620075B0109000031201E875B020905F
:200FED0000031201E875B0409000031201E875B0809000031201E80562747E256250D47547
:20100D00B0FFE4F558F559E4F560F561D0D0D000D001D002D003D004D005D006D007D08377
:09102D00D082D0F0D0E0D02032D6
:20111F004C3A4C574800433A43584C2026204A4D0020202020202020004D4F44453A53004C
:20113F0050443A005375636365737300202020202020202020202020202000202020202089
:20115F000020002020004D4F44453A4D00303030303000303030302A003030302A2A003076
:20117F00302A2A2A00302A2A2A2A002A2A2A2A2A0044454C20504400524553205044004F82
:20119F00504520445200506444656C204F4B005245534554204F4B00444F4F523A004F2048
:2011BF000043004D4F44453A45003030303030300030303030302A00303030302A2A0030AB
:1D11DF0030302A2A2A0030302A2A2A2A00302A2A2A2A2A002A2A2A2A2A2A004F00C0
:201036007A10E4FBFCE58225E0F582E58333F583EB33FBEC33FCEB9508F5F0EC95094006CE
:09105600FCABF0438201DADD225B
:06004000E478FFF6D8FD94
:20001E007900E94400601B7A009011FC780175A000E493F2A308B8000205A0D9F4DAF2757B
:02003E00A0FF21
:1D105F00E5828508F0A4C582C0F08509F0A4D0F025F0C5838508F0A42583F5832253
:20107C00E508450960467A01E50825E0F508E509334012F509E5829508E583950940030A41
:20109C0080E6C3E50913F509E50813F508C3E5829508F5F0E58395094005F58385F082C3E6
:0D10BC00E50913F509E50813F508DAE1224E
:200046007800E84400600A790175A000E4F309D8FC7800E84400600C7900900001E4F0A3B8
:04006600D8FCD9FAEF
:0D00110075816212111BE582600302000E72
:1C10C90020F71430F6148883A88220F507E6A88375830022E280F7E49322E02236
:2010E500C2D5E58330E70DD2D5E4C39582F582E49583F583E50930E70BE4C39508F508E443
:161105009509F50912107C30D50BE4C39582F582E49583F58322BF
:04111B0075820022B7
:00000001FF
