:0400000002001132B7
:03000B00020E26BC
:03006A0002000E83
:03000E00020642A5
:10006D007E327F007C907D01EC24FFFAED34FFFBA6
:10007D008A048B05EA4B70F0EE24FFFCEF34FFFD94
:10008D008C068D07EC4D70DC227F0075B0FFC2B47D
:10009D0020B00B12006D30B0FD12006D7F0120B14C
:1000AD000B12006D30B1FD12006D7F0420B20B12EA
:1000BD00006D30B2FD12006D7F0720B30B12006D85
:1000CD0030B3FD12006D7F0A75B0FFC2B520B00BC5
:1000DD0012006D30B0FD12006D7F0220B10B1200C9
:1000ED006D30B1FD12006D7F0520B20B12006D3029
:1000FD00B2FD12006D7F0820B30B12006D30B3FD01
:10010D0012006D7F0B75B0FFC2B620B00B12006DE3
:10011D0030B0FD12006D7F0320B10B12006D30B1B8
:10012D00FD12006D7F0620B20B12006D30B2FD1274
:10013D00006D7F0920B30B12006D30B3FD12006D01
:10014D007F0C75B0FFC2B720B00B12006D30B0FD43
:10015D0012006D7F0D20B10B12006D30B1FD12003C
:10016D006D7F0E20B20B12006D30B2FD12006D7F4F
:10017D000F20B30B12006D30B3FD12006D7F108F89
:10018D0082227E147F007C907D01EC24FFFAED34F9
:10019D00FFFB8A048B05EA4B70F0EE24FFFCEF3475
:1001AD00FFFD8C068D07EC4D70DC22858208858362
:1001BD00099003E8120F38AE82AF83EE4F601B7CBF
:1001CD00907D01EC24FFFAED34FFFB8A048B05EAE8
:1001DD004B70F01EBEFF011F80E122AE82AF83EE99
:1001ED004F601B7C907D01EC24FFFAED34FFFB8A00
:1001FD00048B05EA4B70F01EBEFF011F80E1227FCC
:10020D00027EEFEE14FDFE70FAEF14FDFF70F42286
:10021D00AF82C290C2918F80D2A512020CC2A502EC
:10022D00020CAF82D290C2918F80D2A512020CC265
:10023D00A502020C75823812021D75820C12021D68
:10024D0075820612021D75820102021DAF82BF0169
:10025D000BAF211F74804FF58202021DAF21743F39
:10026D002FFF74804FF58202021D85222112025943
:10027D0085238202022F8524211202597F00EF254A
:10028D0025FCE43526FDAE278C828D838EF0120F72
:10029D00A2FE600C8E82C00712022FD0070F80DEE7
:1002AD0022AE82AF837C017D007B008B017A00C37F
:1002BD00E99528EA64808529F063F08095F0501E59
:1002CD008E088F098C828D83C007C006C003120F64
:1002DD0038AC82AD83D003D006D0070B80CD8C8295
:1002ED008D8322852A21120259AF2DEF603F8F0594
:1002FD007E00ED24FFF528EE34FFF52990000AC0AD
:10030D00071202AEAD82AE838D088E09852B8285D4
:10031D002C83120F0F75080A750900120F55AD8247
:10032D0074302DF58212022FD0071F80BE22852E2C
:10033D0021120259E53020E70C75822B12022FAEE7
:10034D002FAF30800F75822D12022FC3E4952FFE33
:10035D00E49530FFAD31ED60518D037C00EB24FF52
:10036D00F528EC34FFF52990000AC007C006C0053A
:10037D001202AEAB82AC83D005D006D0078B088CB1
:10038D00098E828F83C007C006C005120F0F750836
:10039D000A750900120F55AB8274302BF5821202CB
:1003AD002FD005D006D0071D80AC22853221120238
:1003BD0059AF35EF60558F057E00ED24FFF528EE22
:1003CD0034FFF529900010C0071202AEAD82AE8346
:1003DD008D088E09853382853483120F0FE5828552
:1003ED0083F0D007540FFDBD0A0050108D067430F8
:1003FD002EF582C00712022FD007800C74372DF511
:10040D0082C00712022FD0071F80A8228536211225
:10041D000259AF39EF603A8F057E00ED24FFF528C4
:10042D00EE34FFF529900002C0071202AEAD82AE88
:10043D00838D088E09853782853883120F0FE582EB
:10044D008583F054012430F58212022FD0071F80CE
:10045D00C322D292D297C292C29722C292D297D27F
:10046D009222AF827E008EF005F07C80E4FD339207
:10047D00D28008A2D2ED13FDEC13FCD5F0F58F025E
:10048D007B00EA5204EB5205EC4D24FF9292D29779
:10049D00C2970EBE080040CE227F00D2927E00D2BF
:1004AD009730921B8EF005F07C80E4FD3392D28064
:1004BD0008A2D2ED13FDEC13FCD5F0F5EC4207C20A
:1004CD00970EBE080040D88F8222E58224FF9292BB
:1004DD00D297C29722D292D297A292E433F582C2DA
:1004ED0097227E0A7F007C907D01EC24FFFAED348B
:1004FD00FFFB8A048B05EA4B70F0EE24FFFCEF3412
:10050D00FFFD8C068D07EC4D70DC22AF82C007120B
:10051D00045F7582A012046F1204E2D0078F82125D
:10052D00046F1204E2853A8212046F1204E212047F
:10053D00680204EFAF82C00712045F7582A0120437
:10054D006F1204E2D0078F8212046F1204E21204BC
:10055D005F7582A112046F1204E21204A6AF8275B8
:10056D008201C0071204D7120468D0078F82227E41
:10057D000A7F007C907D01EC24FFFAED34FFFB8AAD
:10058D00048B05EA4B70F0EE24FFFCEF34FFFD8C7D
:10059D00068D07EC4D70DC227E007F0020B00D1221
:1005AD00057C30B0FD12057C7E017F0020B10D125F
:1005BD00057C30B1FD12057C7E027F0020B20D124C
:1005CD00057C30B2FD12057C7E037F0020B30D1239
:1005DD00057C30B3FD12057C7E047F0020B40D1226
:1005ED00057C30B4FD12057C7E057F0020B50D1213
:1005FD00057C30B5FD12057C7E067F0020B60D1200
:10060D00057C30B6FD12057C7E077F0020B70D12EC
:10061D00057C30B7FD12057C7E087F008E828F83AE
:10062D0022438901C28DD28C758CFC758A18D2AF8C
:10063D00D2A9C2B92212024112062EC2A2C2A0C272
:10064D00A17525F875260F75278075240175820112
:10065D001202837525FE75260F7527807524017589
:10066D008202120283758200120541AF82758201EA
:10067D00C007120541AE82D0078E05E4FEFCEF42A5
:10068D0006EC4205EE4D7023758202120541AF82D4
:10069D00758203C007120541AE82D0078E05E4FEB8
:1006AD00FCEF4206EC4205EE4D6009120241753D2C
:1006BD0001753E00C3E53B9403E53C9400500302F5
:1006CD0008941202411200968582417525097526FE
:1006DD001075278075240975820112028375251105
:1006ED007526107527807524017582011202837598
:1006FD002518752610752780752401758202120242
:10070D0083E54170030207D7E54124F55003020745
:10071D00D7C3E53F9406E540940040030207D78513
:10072D00420885430990000A120F38AE82AF83ACA0
:10073D00417D0075080A8D098C828D83C007C00626
:10074D00120FBEAC82AD83D006D007EC2EF542ED74
:10075D003FF5437508E87509038542828543831289
:10076D000F0F85824685834785440885450990008E
:10077D000A120F38E5828583F02546F544E54735A5
:10078D00F0F5457508E875090385428285438312A6
:10079D000F55858248858349854842854943053FE4
:1007AD00E4B53F020540752A0485442B85452C751B
:1007BD002D037582021202F0752A0785482B854993
:1007CD002C752D037582021202F0740BB54178124F
:1007DD000241AE448E3A758200120518AE458E3A2E
:1007ED00758201120518AE488E3A758202120518EF
:1007FD00AE498E3A75820312051875251C752610A3
:10080D0075278075240475820212028390000112EF
:10081D0001B87525247526107527807524017582FC
:10082D0002120283120241E4F542F543F544F54507
:10083D00F548F549753D01F53EF53FF540F53BF5BC
:10084D003CF55AF55B8040740CB5410280030206FD
:10085D00D2E4F53FF540F542F543F544F545F5484D
:10086D00F549752A04F52BF52C752D0375820212A9
:10087D0002F0752A0785482B85492C752D03758245
:10088D00021202F00206D21200968582417401B561
:10089D003D0614B53E0280030206C1752518752666
:1008AD001075278075240175820212028375253318
:1008BD0075261075278075240975820112028375BE
:1008CD00253975261075278075240E758201120243
:1008DD0083758200120541AF82758201C007120532
:1008ED0041AE82D0078E05E4FC4FF54AED4CF54B39
:1008FD00758202120541AF82758203C00712054150
:10090D00AE82D0078E05E4FEFC4FF54CED4CF54D57
:10091D00740DB54106755A01755B00740EB5410530
:10092D00E4F55AF55B7401B55A0614B55B02800304
:10093D00020B6675253B752610752780752401758C
:10094D008201120283E5417003020A5CE54124F540
:10095D005003020A5CC3E53F9405E540940050380E
:10096D00854E08854F0990000A120F3885824E85F5
:10097D00834FAE417F0075080A8F098E828F8312D7
:10098D000FBEAE82AF83EE254EF54EEF354FF54FD0
:10099D00053FE4B53F020540752A04854E2B854F72
:1009AD002C752D057582021202F09002BC1201E821
:1009BD00C37405953FE495405003020A5CE53F750D
:1009CD00F003A49009D4730209E60209FA020A0E93
:1009DD00020A22020A36020A4A7525427526107548
:1009ED002780752404758202120283806275254862
:1009FD007526107527807524047582021202838076
:100A0D004E75254E75261075278075240475820246
:100A1D00120283803A75255475261075278075242A
:100A2D0004758202120283802675255A752610756B
:100A3D002780752404758202120283801275256049
:100A4D007526107527807524047582021202837431
:100A5D000BB541028003020AFE7435B54E4E748209
:100A6D00B54F49E4F53FF540F54EF54F752A04F5C0
:100A7D002BF52C752D047582021202F07525667505
:100A8D00261075278075240E758201120283900041
:100A9D00021201B875580175590075253975261062
:100AAD0075278075240E7582011202837435B54E3B
:100ABD00077482B54F028039E54E454F6033752579
:100ACD003975261075278075240E758201120283E3
:100ADD00E4F54EF54F752A04F52BF52C752D05759E
:100AED0082021202F0E4F53FF5400556B5560205B7
:100AFD0057740CB54119E4F53FF540F54EF54F75BA
:100B0D002A04F52BF52C752D057582021202F07451
:100B1D0010B5410280030206C1AE448E3A758200C3
:100B2D00120518AE458E3A758201120518AE488E23
:100B3D003A758202120518AE498E3A758203120576
:100B4D001875256875261075278075240475820221
:100B5D001202831202410206C175257775261075A2
:100B6D002780752401758201120283E5417003020D
:100B7D000CFDE54124F55003020CFDC3E53F940641
:100B8D00E54094004003020C41854E08854F0990C5
:100B9D00000A120F38AE82AF83AC417D0075080A92
:100BAD008D098C828D83C007C006120FBEAC82AD3D
:100BBD0083D006D007EC2EF54EED3FF54F7508E8C6
:100BCD00750903854E82854F83120F0F85825285DD
:100BDD00835385500885510990000A120F38E5821C
:100BED008583F02552F550E55335F0F5517508E83C
:100BFD00750903854E82854F83120F558582548565
:100C0D00835585544E85554F053FE4B53F0205404C
:100C1D00752A0485502B85512C752D037582021272
:100C2D0002F0752A0785542B85552C752D03758279
:100C3D00021202F09002BC1201E8C37406953FE463
:100C4D0095405003020CFDE53F75F003A4900C5E3A
:100C5D0073020C73020C87020C9B020CAF020CC3C7
:100C6D00020CD7020CEB75257E7526107527807545
:100C7D0024047582021202838076752585752610EF
:100C8D007527807524047582021202838062752592
:100C9D008C752610752780752404758202120283C7
:100CAD00804E7525937526107527807524047582E1
:100CBD0002120283803A75259A7526107527807564
:100CCD00240475820212028380267525A1752610D3
:100CDD007527807524047582021202838012752592
:100CED00A87526107527807524047582021202835B
:100CFD00740BB541028003020DBFE550B54A76E590
:100D0D0051B54B71E554B54C6CE555B54D67752531
:100D1D006675261075278075240E75820112028363
:100D2D00E4F53FF540F54EF54FF550F551F554F519
:100D3D00559000021201B8755801755900752A04B5
:100D4D0085502B85512C752D037582021202F0757D
:100D5D002A0785542B85552C752D03758202120299
:100D6D00F075253975261075278075240E7582014D
:100D7D00120283803D7525397526107527807524DF
:100D8D000E758201120283E4F54EF54FF550F551C3
:100D9D00F554F55575257E75261075278075240437
:100DAD00758202120283E4F53FF5400556B55602F1
:100DBD000557740CB54133E4F53FF540F54EF54F4D
:100DCD00F550F551F554F555752A04F52BF52C759F
:100DDD002D037582021202F0752A0785542B855555
:100DED002C752D037582021202F0C3E5569403E5AE
:100DFD00579400400FC2A39001F41201E8D2A3E46E
:100E0D00F556F557752A0F85562B85572C752D02DE
:100E1D007582021202F00206C1C020C0E0C0F0C00F
:100E2D0082C083C007C006C005C004C003C002C095
:100E3D0001C000C0D075D000758CFC758A18055C9A
:100E4D00E4B55C02055D7464B55C06E4B55D0280D5
:100E5D0003020EF220B41720B51420B41120B50EE4
:100E6D009000011201B8053BE4B53B02053CE55885
:100E7D0045597003020EED755E0075B0809000034C
:100E8D001201E875B0409000031201E875B0209092
:100E9D0000031201E875B0109000031201E8055E21
:100EAD00746A255E50D49000021201B8755E00750B
:100EBD00B0109000031201E875B0209000031201EC
:100ECD00E875B0409000031201E875B08090000302
:100EDD001201E8055E747E255E50D4E4F558F5598F
:100EED00E4F55CF55DD0D0D000D001D002D003D0B8
:100EFD0004D005D006D007D083D082D0F0D0E0D07A
:020F0D00203290
:100FF8004C3A4C574800433A43584C2026204A4D17
:101008000020202020202020004D4F44453A530046
:1010180050443A00537563636573730020202020A1
:101028002020202020202020202000444F4F523A0A
:101038000043004D4F44453A4D00303030303000C9
:10104800303030302A003030302A2A0030302A2A16
:101058002A00302A2A2A2A002A2A2A2A2A004F0065
:1010680050617373776F726444656C204F4B004D09
:101078004F44453A45003030303030300030303061
:1010880030302A00303030302A2A003030302A2AD6
:101098002A0030302A2A2A2A00302A2A2A2A2A0014
:0710A8002A2A2A2A2A2A0045
:100F0F007A10E4FBFCE58225E0F582E58333F58377
:100F1F00EB33FBEC33FCEB9508F5F0EC9509400651
:090F2F00FCABF0438201DADD2283
:06004000E478FFF6D8FD94
:10001E007900E94400601B7A009010AF780175A05A
:10002E0000E493F2A308B8000205A0D9F4DAF27541
:02003E00A0FF21
:100F3800E5828508F0A4C582C0F08509F0A4D0F048
:100F480025F0C5838508F0A42583F58322E50845A7
:100F58000960467A01E50825E0F508E509334012FD
:100F6800F509E5829508E583950940030A80E6C3FB
:100F7800E50913F509E50813F508C3E5829508F5B1
:100F8800F0E58395094005F58385F082C3E50913EB
:0A0F9800F509E50813F508DAE12277
:100046007800E84400600A790175A000E4F309D855
:10005600FC7800E84400600C7900900001E4F0A30D
:04006600D8FCD9FAEF
:0D00110075815E120FF4E582600302000E9F
:100FA20020F71430F6148883A88220F507E6A88378
:100FB20075830022E280F7E49322E022C2D5E58322
:100FC20030E70DD2D5E4C39582F582E49583F583AB
:100FD200E50930E70BE4C39508F508E49509F5093E
:100FE200120F5530D50BE4C39582F582E49583F553
:060FF2008322758200223B
:00000001FF
