:0400000002001132B7
:03000B000209F1F6
:03006A0002000E83
:03000E0002067A6D
:20006D007E327F007C907D01EC24FFFAED34FFFB8A048B05EA4B70F0EE24FFFCEF34FFFDB7
:20008D008C068D07EC4D70DC227F0075B0FFC2B4AEB0BEE7028034BEEB028022BEED02803A
:2000AD0010BEEE3212006D30B0FD12006D7F01802512006D30B1FD12006D7F04801812003C
:2000CD006D30B2FD12006D7F07800B12006D30B3FD12006D7F0A75B0FFC2B5AEB0BED70240
:2000ED008034BEDB028022BEDD028010BEDE3212006D30B0FD12006D7F02802512006D3057
:20010D00B1FD12006D7F05801812006D30B2FD12006D7F08800B12006D30B3FD12006D7F3D
:20012D000B75B0FFC2B6AEB0BEB7028034BEBB028022BEBD028010BEBE3212006D30B0FD4E
:20014D0012006D7F03802512006D30B1FD12006D7F06801812006D30B2FD12006D7F09800E
:20016D000B12006D30B3FD12006D7F0C75B0FFC2B7AEB0BE77028034BE7B028022BE7D02FE
:20018D008010BE7E3212006D30B0FD12006D7F0D802512006D30B1FD12006D7F0E80181235
:2001AD00006D30B2FD12006D7F0F800B12006D30B3FD12006D7F108F82227E147F007C9091
:2001CD007D01EC24FFFAED34FFFB8A048B05EA4B70F0EE24FFFCEF34FFFD8C068D07EC4D32
:2001ED0070DC228582088583099003E8120B03AE82AF83EE4F601B7C907D01EC24FFFAED2F
:20020D0034FFFB8A048B05EA4B70F01EBEFF011F80E122AE82AF83EE4F601B7C907D01ECE2
:20022D0024FFFAED34FFFB8A048B05EA4B70F01EBEFF011F80E1227F027EEFEE14FDFE70ED
:20024D00FAEF14FDFF70F422AF82C290C2918F80D2A5120244C2A5020244AF82D290C291C9
:20026D008F80D2A5120244C2A502024475823812025575820C120255758206120255758283
:20028D0001020255AF82BF010BAF211F74804FF582020255AF21743F2FFF74804FF582028C
:2002AD0002558522211202918523820202678524211202917F00EF2525FCE43526FDAE27A4
:2002CD008C828D838EF0120B6DFE600C8E82C007120267D0070F80DE22AE82AF837C017D6D
:2002ED00007B008B017A00C3E99528EA64808529F063F08095F0501E8E088F098C828D8389
:20030D00C007C006C003120B03AC82AD83D003D006D0070B80CD8C828D8322852A21120206
:20032D0091AF2DEF603F8F057E00ED24FFF528EE34FFF52990000AC0071202E6AD82AE837C
:20034D008D088E09852B82852C83120ADA75080A750900120B20AD8274302DF582120267D4
:20036D00D0071F80BE22852E21120291E53020E70C75822B120267AE2FAF30800F75822D6D
:20038D00120267C3E4952FFEE49530FFAD31ED60518D037C00EB24FFF528EC34FFF5299044
:2003AD00000AC007C006C0051202E6AB82AC83D005D006D0078B088C098E828F83C007C02B
:2003CD0006C005120ADA75080A750900120B20AB8274302BF582120267D005D006D0071D80
:2003ED0080AC22853221120291AF35EF60558F057E00ED24FFF528EE34FFF529900010C0BF
:20040D00071202E6AD82AE838D088E09853382853483120ADAE5828583F0D007540FFDBD83
:20042D000A0050108D0674302EF582C007120267D007800C74372DF582C007120267D0075C
:20044D001F80A822853621120291AF39EF603A8F057E00ED24FFF528EE34FFF52990000224
:20046D00C0071202E6AD82AE838D088E09853782853883120ADAE5828583F054012430F5B1
:20048D0082120267D0071F80C322D292D297C292C29722C292D297D29222AF827E008EF0EB
:2004AD0005F07C80E4FD3392D28008A2D2ED13FDEC13FCD5F0F58F027B00EA5204EB52058A
:2004CD00EC4D24FF9292D297C2970EBE080040CE227F00D2927E00D29730921B8EF005F0AF
:2004ED007C80E4FD3392D28008A2D2ED13FDEC13FCD5F0F5EC4207C2970EBE080040D88FC4
:20050D008222E58224FF9292D297C29722D292D297A292E433F582C297227E0A7F007C907B
:20052D007D01EC24FFFAED34FFFB8A048B05EA4B70F0EE24FFFCEF34FFFD8C068D07EC4DCE
:20054D0070DC22AF82C0071204977582A01204A712051AD0078F821204A712051A853A82DF
:20056D001204A712051A1204A0020527AF82C0071204977582A01204A712051AD0078F828A
:20058D001204A712051A1204977582A11204A712051A1204DEAF82758201C00712050F1211
:2005AD0004A0D0078F82227E0A7F007C907D01EC24FFFAED34FFFB8A048B05EA4B70F0EE2A
:2005CD0024FFFCEF34FFFD8C068D07EC4D70DC227E007F0020B00D1205B430B0FD1205B4B6
:2005ED007E017F0020B10D1205B430B1FD1205B47E027F0020B20D1205B430B2FD1205B44B
:20060D007E037F0020B30D1205B430B3FD1205B47E047F0020B40D1205B430B4FD1205B41E
:20062D007E057F0020B50D1205B430B5FD1205B47E067F0020B60D1205B430B6FD1205B4F2
:20064D007E077F0020B70D1205B430B7FD1205B47E087F008E828F8322438901C28DD28C68
:20066D00758CFC758A18D2AFD2A9C2B922120279120666C2A2C2A0C2A17525C375260B7514
:20068D0027807524017582011202BB7525C975260B7527807524017582021202BB758200C7
:2006AD00120579AF82758201C007120579AE82D0078E05E4FEFCEF4206EC4205EE4D600997
:2006CD00120279753D01753E00C3E53B9403E53C9400500302080112027912009685824110
:2006ED007525D475260B7527807524017582011202BB7525DB75260B752780752401758294
:20070D00021202BB752A0485422B85432C752D04758202120328E541605AE54124F54054E3
:20072D00E53F9404E5409400504A85420885430990000A120B03858242858343AE417F0041
:20074D0075080A8F098E828F83120B89AE82AF83EE2542F542EF3543F543053FE4B53F02FA
:20076D000540752A0485422B85432C752D04758202120328740BB54155AE428E3A75820049
:20078D00120550AE438E3A7582011205507525DF75260B7527807524047582021202BB909D
:2007AD0000011201F07525E775260B7527807524017582021202BB120279E4F542F543752E
:2007CD003D01F53EF53FF540F53BF53C8026740CB5410280030206E7E4F53FF540F542F5C8
:2007ED0043752A04F52BF52C752D047582021203280206E71200968582417401B53D061489
:20080D00B53E0280030206D67525F675260B7527807524017582011202BB7525DB75260BA7
:20082D007527807524017582021202BB7525FD75260B7527807524097582011202BB7525D1
:20084D000375260C75278075240E7582011202BB752A0485462B85472C752D047582021215
:20086D000328752A0885442B85452C752D04758202120328758200120579AF82758201C063
:20088D0007120579AE82D0078E05E4FEFC4FF544ED4CF545E541605AE54124F54054E53F6A
:2008AD009404E5409400504A85460885470990000A120B03858246858347AE417F00750857
:2008CD000A8F098E828F83120B89AE82AF83EE2546F546EF3547F547053FE4B53F020540A1
:2008ED00752A0185462B85472C752D04758202120328740BB5410280030209A4E546B544B4
:20090D0050E547B5454B75250575260C75278075240E7582011202BB752A0485462B8547D4
:20092D002C752D04758202120328E4F53FF540F546F5479000021201F0754A01754B007554
:20094D00250375260C75278075240E7582011202BBE546B54407E547B54502803AE54645B4
:20096D0047603475250375260C75278075240E7582011202BB752A0485462B85472C752D8E
:20098D0004758202120328E4F546F547F53FF5400548B548020549740CB54119E4F53FF516
:2009AD0040F546F547752A04F52BF52C752D04758202120328C3E5489403E5499400400F1B
:2009CD00C2A39001F4120220D2A3E4F548F549752A0F85482B85492C752D027582021203C6
:2009ED00280206D6C020C0E0C0F0C082C083C007C006C005C004C003C002C001C000C0D083
:200A0D0075D000758CFC758A18054CE4B54C02054D7464B54C06E4B54D028003020ABD20B3
:200A2D00B41720B51420B41120B50E9000011201F0053BE4B53B02053CE54A454B7003020E
:200A4D000AB8754E0075B08090000312022075B04090000312022075B02090000312022060
:200A6D0075B010900003120220054E747E254E50D49000021201F0754E0075B01090000371
:200A8D0012022075B02090000312022075B04090000312022075B080900003120220054E1E
:200AAD00747E254E50D4E4F54AF54BE4F54CF54DD0D0D000D001D002D003D004D005D00671
:0D0ACD00D007D083D082D0F0D0E0D020320E
:200BC3004C3A4C574800433A43584C2026204A4D004D4F44453A530050443A005375636332
:200BE300657373002020202020202020202020202020004D4F44453A4500444F4F523A00D5
:040C030043004F005B
:200ADA007A10E4FBFCE58225E0F582E58333F583EB33FBEC33FCEB9508F5F0EC9509400630
:090AFA00FCABF0438201DADD22BD
:06004000E478FFF6D8FD94
:20001E007900E94400601B7A00900C07780175A000E493F2A308B8000205A0D9F4DAF27575
:02003E00A0FF21
:1D0B0300E5828508F0A4C582C0F08509F0A4D0F025F0C5838508F0A42583F58322B4
:200B2000E508450960467A01E50825E0F508E509334012F509E5829508E583950940030AA2
:200B400080E6C3E50913F509E50813F508C3E5829508F5F0E58395094005F58385F082C347
:0D0B6000E50913F509E50813F508DAE122AF
:200046007800E84400600A790175A000E4F309D8FC7800E84400600C7900900001E4F0A3B8
:04006600D8FCD9FAEF
:0D00110075814E120BBFE582600302000EE8
:1C0B6D0020F71430F6148883A88220F507E6A88375830022E280F7E49322E02297
:200B8900C2D5E58330E70DD2D5E4C39582F582E49583F583E50930E70BE4C39508F508E4A4
:160BA9009509F509120B2030D50BE4C39582F582E49583F5832282
:040BBF007582002219
:00000001FF
